{"contracts/Escrow.sol":{"Escrow":{"abi":[{"inputs":[{"internalType":"address","name":"_nftaddress","type":"address"},{"internalType":"address","name":"_inspector","type":"address"},{"internalType":"address payable","name":"_seller","type":"address"},{"internalType":"address","name":"_lender","type":"address"}],"stateMutability":"nonpayable","type":"constructor"},{"inputs":[{"internalType":"uint256","name":"","type":"uint256"},{"internalType":"address","name":"","type":"address"}],"name":"approval","outputs":[{"internalType":"bool","name":"","type":"bool"}],"stateMutability":"view","type":"function"},{"inputs":[{"internalType":"uint256","name":"_nftID","type":"uint256"}],"name":"approveSale","outputs":[],"stateMutability":"nonpayable","type":"function"},{"inputs":[{"internalType":"uint256","name":"","type":"uint256"}],"name":"buyer","outputs":[{"internalType":"address","name":"","type":"address"}],"stateMutability":"view","type":"function"},{"inputs":[{"internalType":"uint256","name":"_nftID","type":"uint256"}],"name":"depositEarnest","outputs":[],"stateMutability":"payable","type":"function"},{"inputs":[{"internalType":"uint256","name":"","type":"uint256"}],"name":"escrowAmount","outputs":[{"internalType":"uint256","name":"","type":"uint256"}],"stateMutability":"view","type":"function"},{"inputs":[{"internalType":"uint256","name":"_nftID","type":"uint256"}],"name":"finalizeSale","outputs":[],"stateMutability":"nonpayable","type":"function"},{"inputs":[],"name":"getBalance","outputs":[{"internalType":"uint256","name":"","type":"uint256"}],"stateMutability":"view","type":"function"},{"inputs":[{"internalType":"uint256","name":"","type":"uint256"}],"name":"inspectionPassed","outputs":[{"internalType":"bool","name":"","type":"bool"}],"stateMutability":"view","type":"function"},{"inputs":[],"name":"inspector","outputs":[{"internalType":"address","name":"","type":"address"}],"stateMutability":"view","type":"function"},{"inputs":[{"internalType":"uint256","name":"","type":"uint256"}],"name":"isListed","outputs":[{"internalType":"bool","name":"","type":"bool"}],"stateMutability":"view","type":"function"},{"inputs":[],"name":"lender","outputs":[{"internalType":"address","name":"","type":"address"}],"stateMutability":"view","type":"function"},{"inputs":[{"internalType":"uint256","name":"_nftID","type":"uint256"},{"internalType":"address","name":"_buyer","type":"address"},{"internalType":"uint256","name":"_purchasePrice","type":"uint256"},{"internalType":"uint256","name":"_escrowAmount","type":"uint256"}],"name":"list","outputs":[],"stateMutability":"payable","type":"function"},{"inputs":[],"name":"nftAddress","outputs":[{"internalType":"address","name":"","type":"address"}],"stateMutability":"view","type":"function"},{"inputs":[{"internalType":"uint256","name":"","type":"uint256"}],"name":"purchasePrice","outputs":[{"internalType":"uint256","name":"","type":"uint256"}],"stateMutability":"view","type":"function"},{"inputs":[],"name":"seller","outputs":[{"internalType":"address payable","name":"","type":"address"}],"stateMutability":"view","type":"function"},{"inputs":[{"internalType":"uint256","name":"_nftID","type":"uint256"},{"internalType":"bool","name":"_passsed","type":"bool"}],"name":"updateInspectionStatus","outputs":[],"stateMutability":"nonpayable","type":"function"},{"stateMutability":"payable","type":"receive"}],"evm":{"bytecode":{"linkReferences":{},"object":"60806040523480156200001157600080fd5b50604051620010d9380380620010d98339818101604052810190620000379190620001f3565b836000806101000a81548173ffffffffffffffffffffffffffffffffffffffff021916908373ffffffffffffffffffffffffffffffffffffffff16021790555082600160006101000a81548173ffffffffffffffffffffffffffffffffffffffff021916908373ffffffffffffffffffffffffffffffffffffffff16021790555081600260006101000a81548173ffffffffffffffffffffffffffffffffffffffff021916908373ffffffffffffffffffffffffffffffffffffffff16021790555080600360006101000a81548173ffffffffffffffffffffffffffffffffffffffff021916908373ffffffffffffffffffffffffffffffffffffffff1602179055505050505062000265565b600080fd5b600073ffffffffffffffffffffffffffffffffffffffff82169050919050565b6000620001768262000149565b9050919050565b620001888162000169565b81146200019457600080fd5b50565b600081519050620001a8816200017d565b92915050565b6000620001bb8262000149565b9050919050565b620001cd81620001ae565b8114620001d957600080fd5b50565b600081519050620001ed81620001c2565b92915050565b6000806000806080858703121562000210576200020f62000144565b5b6000620002208782880162000197565b9450506020620002338782880162000197565b93505060406200024687828801620001dc565b9250506060620002598782880162000197565b91505092959194509250565b610e6480620002756000396000f3fe6080604052600436106100f75760003560e01c80639d0e5fd61161008a578063c9f0ec7e11610059578063c9f0ec7e1461035b578063e740f77014610377578063ed2cee9e14610393578063fcce4883146103be576100fe565b80639d0e5fd6146102a1578063aa929380146102ca578063b848de35146102f3578063bcead63e14610330576100fe565b80635bf8633a116100c65780635bf8633a146101bf5780635d19e56c146101ea5780635eed5fff1461022757806377fbc4ae14610264576100fe565b806308551a531461010357806312065fe01461012e57806314a72feb146101595780634dd4acaf14610182576100fe565b366100fe57005b600080fd5b34801561010f57600080fd5b506101186103fb565b6040516101259190610b2d565b60405180910390f35b34801561013a57600080fd5b50610143610421565b6040516101509190610b61565b60405180910390f35b34801561016557600080fd5b50610180600480360381019061017b9190610bad565b610429565b005b34801561018e57600080fd5b506101a960048036038101906101a49190610bad565b610495565b6040516101b69190610bfb565b60405180910390f35b3480156101cb57600080fd5b506101d46104c8565b6040516101e19190610bfb565b60405180910390f35b3480156101f657600080fd5b50610211600480360381019061020c9190610bad565b6104ec565b60405161021e9190610b61565b60405180910390f35b34801561023357600080fd5b5061024e60048036038101906102499190610bad565b610504565b60405161025b9190610c31565b60405180910390f35b34801561027057600080fd5b5061028b60048036038101906102869190610bad565b610524565b6040516102989190610b61565b60405180910390f35b3480156102ad57600080fd5b506102c860048036038101906102c39190610c78565b61053c565b005b3480156102d657600080fd5b506102f160048036038101906102ec9190610bad565b61056b565b005b3480156102ff57600080fd5b5061031a60048036038101906103159190610ce4565b6108eb565b6040516103279190610c31565b60405180910390f35b34801561033c57600080fd5b5061034561091a565b6040516103529190610bfb565b60405180910390f35b61037560048036038101906103709190610d24565b610940565b005b610391600480360381019061038c9190610bad565b610a83565b005b34801561039f57600080fd5b506103a8610aa6565b6040516103b59190610bfb565b60405180910390f35b3480156103ca57600080fd5b506103e560048036038101906103e09190610bad565b610acc565b6040516103f29190610c31565b60405180910390f35b600260009054906101000a900473ffffffffffffffffffffffffffffffffffffffff1681565b600047905090565b60016009600083815260200190815260200160002060003373ffffffffffffffffffffffffffffffffffffffff1673ffffffffffffffffffffffffffffffffffffffff16815260200190815260200160002060006101000a81548160ff02191690831515021790555050565b60076020528060005260406000206000915054906101000a900473ffffffffffffffffffffffffffffffffffffffff1681565b60008054906101000a900473ffffffffffffffffffffffffffffffffffffffff1681565b60066020528060005260406000206000915090505481565b60086020528060005260406000206000915054906101000a900460ff1681565b60056020528060005260406000206000915090505481565b806008600084815260200190815260200160002060006101000a81548160ff0219169083151502179055505050565b6008600082815260200190815260200160002060009054906101000a900460ff1661059557600080fd5b6009600082815260200190815260200160002060006007600084815260200190815260200160002060009054906101000a900473ffffffffffffffffffffffffffffffffffffffff1673ffffffffffffffffffffffffffffffffffffffff1673ffffffffffffffffffffffffffffffffffffffff16815260200190815260200160002060009054906101000a900460ff1661062f57600080fd5b600960008281526020019081526020016000206000600260009054906101000a900473ffffffffffffffffffffffffffffffffffffffff1673ffffffffffffffffffffffffffffffffffffffff1673ffffffffffffffffffffffffffffffffffffffff16815260200190815260200160002060009054906101000a900460ff166106b857600080fd5b600960008281526020019081526020016000206000600360009054906101000a900473ffffffffffffffffffffffffffffffffffffffff1673ffffffffffffffffffffffffffffffffffffffff1673ffffffffffffffffffffffffffffffffffffffff16815260200190815260200160002060009054906101000a900460ff1661074157600080fd5b600560008281526020019081526020016000205447101561076157600080fd5b60006004600083815260200190815260200160002060006101000a81548160ff0219169083151502179055506000600260009054906101000a900473ffffffffffffffffffffffffffffffffffffffff1673ffffffffffffffffffffffffffffffffffffffff16476040516107d590610de2565b60006040518083038185875af1925050503d8060008114610812576040519150601f19603f3d011682016040523d82523d6000602084013e610817565b606091505b505090508061082557600080fd5b60008054906101000a900473ffffffffffffffffffffffffffffffffffffffff1673ffffffffffffffffffffffffffffffffffffffff166323b872dd306007600086815260200190815260200160002060009054906101000a900473ffffffffffffffffffffffffffffffffffffffff16856040518463ffffffff1660e01b81526004016108b593929190610df7565b600060405180830381600087803b1580156108cf57600080fd5b505af11580156108e3573d6000803e3d6000fd5b505050505050565b60096020528160005260406000206020528060005260406000206000915091509054906101000a900460ff1681565b600360009054906101000a900473ffffffffffffffffffffffffffffffffffffffff1681565b60008054906101000a900473ffffffffffffffffffffffffffffffffffffffff1673ffffffffffffffffffffffffffffffffffffffff166323b872dd3330876040518463ffffffff1660e01b815260040161099d93929190610df7565b600060405180830381600087803b1580156109b757600080fd5b505af11580156109cb573d6000803e3d6000fd5b5050505060016004600086815260200190815260200160002060006101000a81548160ff021916908315150217905550816005600086815260200190815260200160002081905550806006600086815260200190815260200160002081905550826007600086815260200190815260200160002060006101000a81548173ffffffffffffffffffffffffffffffffffffffff021916908373ffffffffffffffffffffffffffffffffffffffff16021790555050505050565b6006600082815260200190815260200160002054341015610aa357600080fd5b50565b600160009054906101000a900473ffffffffffffffffffffffffffffffffffffffff1681565b60046020528060005260406000206000915054906101000a900460ff1681565b600073ffffffffffffffffffffffffffffffffffffffff82169050919050565b6000610b1782610aec565b9050919050565b610b2781610b0c565b82525050565b6000602082019050610b426000830184610b1e565b92915050565b6000819050919050565b610b5b81610b48565b82525050565b6000602082019050610b766000830184610b52565b92915050565b600080fd5b610b8a81610b48565b8114610b9557600080fd5b50565b600081359050610ba781610b81565b92915050565b600060208284031215610bc357610bc2610b7c565b5b6000610bd184828501610b98565b91505092915050565b6000610be582610aec565b9050919050565b610bf581610bda565b82525050565b6000602082019050610c106000830184610bec565b92915050565b60008115159050919050565b610c2b81610c16565b82525050565b6000602082019050610c466000830184610c22565b92915050565b610c5581610c16565b8114610c6057600080fd5b50565b600081359050610c7281610c4c565b92915050565b60008060408385031215610c8f57610c8e610b7c565b5b6000610c9d85828601610b98565b9250506020610cae85828601610c63565b9150509250929050565b610cc181610bda565b8114610ccc57600080fd5b50565b600081359050610cde81610cb8565b92915050565b60008060408385031215610cfb57610cfa610b7c565b5b6000610d0985828601610b98565b9250506020610d1a85828601610ccf565b9150509250929050565b60008060008060808587031215610d3e57610d3d610b7c565b5b6000610d4c87828801610b98565b9450506020610d5d87828801610ccf565b9350506040610d6e87828801610b98565b9250506060610d7f87828801610b98565b91505092959194509250565b600081905092915050565b7f2000000000000000000000000000000000000000000000000000000000000000600082015250565b6000610dcc600183610d8b565b9150610dd782610d96565b600182019050919050565b6000610ded82610dbf565b9150819050919050565b6000606082019050610e0c6000830186610bec565b610e196020830185610bec565b610e266040830184610b52565b94935050505056fea2646970667358221220fd078681ba71e91136687f2209354e02a887346447411e24e600f6ea95edee8464736f6c63430008110033","opcodes":"PUSH1 0x80 PUSH1 0x40 MSTORE CALLVALUE DUP1 ISZERO PUSH3 0x11 JUMPI PUSH1 0x0 DUP1 REVERT JUMPDEST POP PUSH1 0x40 MLOAD PUSH3 0x10D9 CODESIZE SUB DUP1 PUSH3 0x10D9 DUP4 CODECOPY DUP2 DUP2 ADD PUSH1 0x40 MSTORE DUP2 ADD SWAP1 PUSH3 0x37 SWAP2 SWAP1 PUSH3 0x1F3 JUMP JUMPDEST DUP4 PUSH1 0x0 DUP1 PUSH2 0x100 EXP DUP2 SLOAD DUP2 PUSH20 0xFFFFFFFFFFFFFFFFFFFFFFFFFFFFFFFFFFFFFFFF MUL NOT AND SWAP1 DUP4 PUSH20 0xFFFFFFFFFFFFFFFFFFFFFFFFFFFFFFFFFFFFFFFF AND MUL OR SWAP1 SSTORE POP DUP3 PUSH1 0x1 PUSH1 0x0 PUSH2 0x100 EXP DUP2 SLOAD DUP2 PUSH20 0xFFFFFFFFFFFFFFFFFFFFFFFFFFFFFFFFFFFFFFFF MUL NOT AND SWAP1 DUP4 PUSH20 0xFFFFFFFFFFFFFFFFFFFFFFFFFFFFFFFFFFFFFFFF AND MUL OR SWAP1 SSTORE POP DUP2 PUSH1 0x2 PUSH1 0x0 PUSH2 0x100 EXP DUP2 SLOAD DUP2 PUSH20 0xFFFFFFFFFFFFFFFFFFFFFFFFFFFFFFFFFFFFFFFF MUL NOT AND SWAP1 DUP4 PUSH20 0xFFFFFFFFFFFFFFFFFFFFFFFFFFFFFFFFFFFFFFFF AND MUL OR SWAP1 SSTORE POP DUP1 PUSH1 0x3 PUSH1 0x0 PUSH2 0x100 EXP DUP2 SLOAD DUP2 PUSH20 0xFFFFFFFFFFFFFFFFFFFFFFFFFFFFFFFFFFFFFFFF MUL NOT AND SWAP1 DUP4 PUSH20 0xFFFFFFFFFFFFFFFFFFFFFFFFFFFFFFFFFFFFFFFF AND MUL OR SWAP1 SSTORE POP POP POP POP POP PUSH3 0x265 JUMP JUMPDEST PUSH1 0x0 DUP1 REVERT JUMPDEST PUSH1 0x0 PUSH20 0xFFFFFFFFFFFFFFFFFFFFFFFFFFFFFFFFFFFFFFFF DUP3 AND SWAP1 POP SWAP2 SWAP1 POP JUMP JUMPDEST PUSH1 0x0 PUSH3 0x176 DUP3 PUSH3 0x149 JUMP JUMPDEST SWAP1 POP SWAP2 SWAP1 POP JUMP JUMPDEST PUSH3 0x188 DUP2 PUSH3 0x169 JUMP JUMPDEST DUP2 EQ PUSH3 0x194 JUMPI PUSH1 0x0 DUP1 REVERT JUMPDEST POP JUMP JUMPDEST PUSH1 0x0 DUP2 MLOAD SWAP1 POP PUSH3 0x1A8 DUP2 PUSH3 0x17D JUMP JUMPDEST SWAP3 SWAP2 POP POP JUMP JUMPDEST PUSH1 0x0 PUSH3 0x1BB DUP3 PUSH3 0x149 JUMP JUMPDEST SWAP1 POP SWAP2 SWAP1 POP JUMP JUMPDEST PUSH3 0x1CD DUP2 PUSH3 0x1AE JUMP JUMPDEST DUP2 EQ PUSH3 0x1D9 JUMPI PUSH1 0x0 DUP1 REVERT JUMPDEST POP JUMP JUMPDEST PUSH1 0x0 DUP2 MLOAD SWAP1 POP PUSH3 0x1ED DUP2 PUSH3 0x1C2 JUMP JUMPDEST SWAP3 SWAP2 POP POP JUMP JUMPDEST PUSH1 0x0 DUP1 PUSH1 0x0 DUP1 PUSH1 0x80 DUP6 DUP8 SUB SLT ISZERO PUSH3 0x210 JUMPI PUSH3 0x20F PUSH3 0x144 JUMP JUMPDEST JUMPDEST PUSH1 0x0 PUSH3 0x220 DUP8 DUP3 DUP9 ADD PUSH3 0x197 JUMP JUMPDEST SWAP5 POP POP PUSH1 0x20 PUSH3 0x233 DUP8 DUP3 DUP9 ADD PUSH3 0x197 JUMP JUMPDEST SWAP4 POP POP PUSH1 0x40 PUSH3 0x246 DUP8 DUP3 DUP9 ADD PUSH3 0x1DC JUMP JUMPDEST SWAP3 POP POP PUSH1 0x60 PUSH3 0x259 DUP8 DUP3 DUP9 ADD PUSH3 0x197 JUMP JUMPDEST SWAP2 POP POP SWAP3 SWAP6 SWAP2 SWAP5 POP SWAP3 POP JUMP JUMPDEST PUSH2 0xE64 DUP1 PUSH3 0x275 PUSH1 0x0 CODECOPY PUSH1 0x0 RETURN INVALID PUSH1 0x80 PUSH1 0x40 MSTORE PUSH1 0x4 CALLDATASIZE LT PUSH2 0xF7 JUMPI PUSH1 0x0 CALLDATALOAD PUSH1 0xE0 SHR DUP1 PUSH4 0x9D0E5FD6 GT PUSH2 0x8A JUMPI DUP1 PUSH4 0xC9F0EC7E GT PUSH2 0x59 JUMPI DUP1 PUSH4 0xC9F0EC7E EQ PUSH2 0x35B JUMPI DUP1 PUSH4 0xE740F770 EQ PUSH2 0x377 JUMPI DUP1 PUSH4 0xED2CEE9E EQ PUSH2 0x393 JUMPI DUP1 PUSH4 0xFCCE4883 EQ PUSH2 0x3BE JUMPI PUSH2 0xFE JUMP JUMPDEST DUP1 PUSH4 0x9D0E5FD6 EQ PUSH2 0x2A1 JUMPI DUP1 PUSH4 0xAA929380 EQ PUSH2 0x2CA JUMPI DUP1 PUSH4 0xB848DE35 EQ PUSH2 0x2F3 JUMPI DUP1 PUSH4 0xBCEAD63E EQ PUSH2 0x330 JUMPI PUSH2 0xFE JUMP JUMPDEST DUP1 PUSH4 0x5BF8633A GT PUSH2 0xC6 JUMPI DUP1 PUSH4 0x5BF8633A EQ PUSH2 0x1BF JUMPI DUP1 PUSH4 0x5D19E56C EQ PUSH2 0x1EA JUMPI DUP1 PUSH4 0x5EED5FFF EQ PUSH2 0x227 JUMPI DUP1 PUSH4 0x77FBC4AE EQ PUSH2 0x264 JUMPI PUSH2 0xFE JUMP JUMPDEST DUP1 PUSH4 0x8551A53 EQ PUSH2 0x103 JUMPI DUP1 PUSH4 0x12065FE0 EQ PUSH2 0x12E JUMPI DUP1 PUSH4 0x14A72FEB EQ PUSH2 0x159 JUMPI DUP1 PUSH4 0x4DD4ACAF EQ PUSH2 0x182 JUMPI PUSH2 0xFE JUMP JUMPDEST CALLDATASIZE PUSH2 0xFE JUMPI STOP JUMPDEST PUSH1 0x0 DUP1 REVERT JUMPDEST CALLVALUE DUP1 ISZERO PUSH2 0x10F JUMPI PUSH1 0x0 DUP1 REVERT JUMPDEST POP PUSH2 0x118 PUSH2 0x3FB JUMP JUMPDEST PUSH1 0x40 MLOAD PUSH2 0x125 SWAP2 SWAP1 PUSH2 0xB2D JUMP JUMPDEST PUSH1 0x40 MLOAD DUP1 SWAP2 SUB SWAP1 RETURN JUMPDEST CALLVALUE DUP1 ISZERO PUSH2 0x13A JUMPI PUSH1 0x0 DUP1 REVERT JUMPDEST POP PUSH2 0x143 PUSH2 0x421 JUMP JUMPDEST PUSH1 0x40 MLOAD PUSH2 0x150 SWAP2 SWAP1 PUSH2 0xB61 JUMP JUMPDEST PUSH1 0x40 MLOAD DUP1 SWAP2 SUB SWAP1 RETURN JUMPDEST CALLVALUE DUP1 ISZERO PUSH2 0x165 JUMPI PUSH1 0x0 DUP1 REVERT JUMPDEST POP PUSH2 0x180 PUSH1 0x4 DUP1 CALLDATASIZE SUB DUP2 ADD SWAP1 PUSH2 0x17B SWAP2 SWAP1 PUSH2 0xBAD JUMP JUMPDEST PUSH2 0x429 JUMP JUMPDEST STOP JUMPDEST CALLVALUE DUP1 ISZERO PUSH2 0x18E JUMPI PUSH1 0x0 DUP1 REVERT JUMPDEST POP PUSH2 0x1A9 PUSH1 0x4 DUP1 CALLDATASIZE SUB DUP2 ADD SWAP1 PUSH2 0x1A4 SWAP2 SWAP1 PUSH2 0xBAD JUMP JUMPDEST PUSH2 0x495 JUMP JUMPDEST PUSH1 0x40 MLOAD PUSH2 0x1B6 SWAP2 SWAP1 PUSH2 0xBFB JUMP JUMPDEST PUSH1 0x40 MLOAD DUP1 SWAP2 SUB SWAP1 RETURN JUMPDEST CALLVALUE DUP1 ISZERO PUSH2 0x1CB JUMPI PUSH1 0x0 DUP1 REVERT JUMPDEST POP PUSH2 0x1D4 PUSH2 0x4C8 JUMP JUMPDEST PUSH1 0x40 MLOAD PUSH2 0x1E1 SWAP2 SWAP1 PUSH2 0xBFB JUMP JUMPDEST PUSH1 0x40 MLOAD DUP1 SWAP2 SUB SWAP1 RETURN JUMPDEST CALLVALUE DUP1 ISZERO PUSH2 0x1F6 JUMPI PUSH1 0x0 DUP1 REVERT JUMPDEST POP PUSH2 0x211 PUSH1 0x4 DUP1 CALLDATASIZE SUB DUP2 ADD SWAP1 PUSH2 0x20C SWAP2 SWAP1 PUSH2 0xBAD JUMP JUMPDEST PUSH2 0x4EC JUMP JUMPDEST PUSH1 0x40 MLOAD PUSH2 0x21E SWAP2 SWAP1 PUSH2 0xB61 JUMP JUMPDEST PUSH1 0x40 MLOAD DUP1 SWAP2 SUB SWAP1 RETURN JUMPDEST CALLVALUE DUP1 ISZERO PUSH2 0x233 JUMPI PUSH1 0x0 DUP1 REVERT JUMPDEST POP PUSH2 0x24E PUSH1 0x4 DUP1 CALLDATASIZE SUB DUP2 ADD SWAP1 PUSH2 0x249 SWAP2 SWAP1 PUSH2 0xBAD JUMP JUMPDEST PUSH2 0x504 JUMP JUMPDEST PUSH1 0x40 MLOAD PUSH2 0x25B SWAP2 SWAP1 PUSH2 0xC31 JUMP JUMPDEST PUSH1 0x40 MLOAD DUP1 SWAP2 SUB SWAP1 RETURN JUMPDEST CALLVALUE DUP1 ISZERO PUSH2 0x270 JUMPI PUSH1 0x0 DUP1 REVERT JUMPDEST POP PUSH2 0x28B PUSH1 0x4 DUP1 CALLDATASIZE SUB DUP2 ADD SWAP1 PUSH2 0x286 SWAP2 SWAP1 PUSH2 0xBAD JUMP JUMPDEST PUSH2 0x524 JUMP JUMPDEST PUSH1 0x40 MLOAD PUSH2 0x298 SWAP2 SWAP1 PUSH2 0xB61 JUMP JUMPDEST PUSH1 0x40 MLOAD DUP1 SWAP2 SUB SWAP1 RETURN JUMPDEST CALLVALUE DUP1 ISZERO PUSH2 0x2AD JUMPI PUSH1 0x0 DUP1 REVERT JUMPDEST POP PUSH2 0x2C8 PUSH1 0x4 DUP1 CALLDATASIZE SUB DUP2 ADD SWAP1 PUSH2 0x2C3 SWAP2 SWAP1 PUSH2 0xC78 JUMP JUMPDEST PUSH2 0x53C JUMP JUMPDEST STOP JUMPDEST CALLVALUE DUP1 ISZERO PUSH2 0x2D6 JUMPI PUSH1 0x0 DUP1 REVERT JUMPDEST POP PUSH2 0x2F1 PUSH1 0x4 DUP1 CALLDATASIZE SUB DUP2 ADD SWAP1 PUSH2 0x2EC SWAP2 SWAP1 PUSH2 0xBAD JUMP JUMPDEST PUSH2 0x56B JUMP JUMPDEST STOP JUMPDEST CALLVALUE DUP1 ISZERO PUSH2 0x2FF JUMPI PUSH1 0x0 DUP1 REVERT JUMPDEST POP PUSH2 0x31A PUSH1 0x4 DUP1 CALLDATASIZE SUB DUP2 ADD SWAP1 PUSH2 0x315 SWAP2 SWAP1 PUSH2 0xCE4 JUMP JUMPDEST PUSH2 0x8EB JUMP JUMPDEST PUSH1 0x40 MLOAD PUSH2 0x327 SWAP2 SWAP1 PUSH2 0xC31 JUMP JUMPDEST PUSH1 0x40 MLOAD DUP1 SWAP2 SUB SWAP1 RETURN JUMPDEST CALLVALUE DUP1 ISZERO PUSH2 0x33C JUMPI PUSH1 0x0 DUP1 REVERT JUMPDEST POP PUSH2 0x345 PUSH2 0x91A JUMP JUMPDEST PUSH1 0x40 MLOAD PUSH2 0x352 SWAP2 SWAP1 PUSH2 0xBFB JUMP JUMPDEST PUSH1 0x40 MLOAD DUP1 SWAP2 SUB SWAP1 RETURN JUMPDEST PUSH2 0x375 PUSH1 0x4 DUP1 CALLDATASIZE SUB DUP2 ADD SWAP1 PUSH2 0x370 SWAP2 SWAP1 PUSH2 0xD24 JUMP JUMPDEST PUSH2 0x940 JUMP JUMPDEST STOP JUMPDEST PUSH2 0x391 PUSH1 0x4 DUP1 CALLDATASIZE SUB DUP2 ADD SWAP1 PUSH2 0x38C SWAP2 SWAP1 PUSH2 0xBAD JUMP JUMPDEST PUSH2 0xA83 JUMP JUMPDEST STOP JUMPDEST CALLVALUE DUP1 ISZERO PUSH2 0x39F JUMPI PUSH1 0x0 DUP1 REVERT JUMPDEST POP PUSH2 0x3A8 PUSH2 0xAA6 JUMP JUMPDEST PUSH1 0x40 MLOAD PUSH2 0x3B5 SWAP2 SWAP1 PUSH2 0xBFB JUMP JUMPDEST PUSH1 0x40 MLOAD DUP1 SWAP2 SUB SWAP1 RETURN JUMPDEST CALLVALUE DUP1 ISZERO PUSH2 0x3CA JUMPI PUSH1 0x0 DUP1 REVERT JUMPDEST POP PUSH2 0x3E5 PUSH1 0x4 DUP1 CALLDATASIZE SUB DUP2 ADD SWAP1 PUSH2 0x3E0 SWAP2 SWAP1 PUSH2 0xBAD JUMP JUMPDEST PUSH2 0xACC JUMP JUMPDEST PUSH1 0x40 MLOAD PUSH2 0x3F2 SWAP2 SWAP1 PUSH2 0xC31 JUMP JUMPDEST PUSH1 0x40 MLOAD DUP1 SWAP2 SUB SWAP1 RETURN JUMPDEST PUSH1 0x2 PUSH1 0x0 SWAP1 SLOAD SWAP1 PUSH2 0x100 EXP SWAP1 DIV PUSH20 0xFFFFFFFFFFFFFFFFFFFFFFFFFFFFFFFFFFFFFFFF AND DUP2 JUMP JUMPDEST PUSH1 0x0 SELFBALANCE SWAP1 POP SWAP1 JUMP JUMPDEST PUSH1 0x1 PUSH1 0x9 PUSH1 0x0 DUP4 DUP2 MSTORE PUSH1 0x20 ADD SWAP1 DUP2 MSTORE PUSH1 0x20 ADD PUSH1 0x0 KECCAK256 PUSH1 0x0 CALLER PUSH20 0xFFFFFFFFFFFFFFFFFFFFFFFFFFFFFFFFFFFFFFFF AND PUSH20 0xFFFFFFFFFFFFFFFFFFFFFFFFFFFFFFFFFFFFFFFF AND DUP2 MSTORE PUSH1 0x20 ADD SWAP1 DUP2 MSTORE PUSH1 0x20 ADD PUSH1 0x0 KECCAK256 PUSH1 0x0 PUSH2 0x100 EXP DUP2 SLOAD DUP2 PUSH1 0xFF MUL NOT AND SWAP1 DUP4 ISZERO ISZERO MUL OR SWAP1 SSTORE POP POP JUMP JUMPDEST PUSH1 0x7 PUSH1 0x20 MSTORE DUP1 PUSH1 0x0 MSTORE PUSH1 0x40 PUSH1 0x0 KECCAK256 PUSH1 0x0 SWAP2 POP SLOAD SWAP1 PUSH2 0x100 EXP SWAP1 DIV PUSH20 0xFFFFFFFFFFFFFFFFFFFFFFFFFFFFFFFFFFFFFFFF AND DUP2 JUMP JUMPDEST PUSH1 0x0 DUP1 SLOAD SWAP1 PUSH2 0x100 EXP SWAP1 DIV PUSH20 0xFFFFFFFFFFFFFFFFFFFFFFFFFFFFFFFFFFFFFFFF AND DUP2 JUMP JUMPDEST PUSH1 0x6 PUSH1 0x20 MSTORE DUP1 PUSH1 0x0 MSTORE PUSH1 0x40 PUSH1 0x0 KECCAK256 PUSH1 0x0 SWAP2 POP SWAP1 POP SLOAD DUP2 JUMP JUMPDEST PUSH1 0x8 PUSH1 0x20 MSTORE DUP1 PUSH1 0x0 MSTORE PUSH1 0x40 PUSH1 0x0 KECCAK256 PUSH1 0x0 SWAP2 POP SLOAD SWAP1 PUSH2 0x100 EXP SWAP1 DIV PUSH1 0xFF AND DUP2 JUMP JUMPDEST PUSH1 0x5 PUSH1 0x20 MSTORE DUP1 PUSH1 0x0 MSTORE PUSH1 0x40 PUSH1 0x0 KECCAK256 PUSH1 0x0 SWAP2 POP SWAP1 POP SLOAD DUP2 JUMP JUMPDEST DUP1 PUSH1 0x8 PUSH1 0x0 DUP5 DUP2 MSTORE PUSH1 0x20 ADD SWAP1 DUP2 MSTORE PUSH1 0x20 ADD PUSH1 0x0 KECCAK256 PUSH1 0x0 PUSH2 0x100 EXP DUP2 SLOAD DUP2 PUSH1 0xFF MUL NOT AND SWAP1 DUP4 ISZERO ISZERO MUL OR SWAP1 SSTORE POP POP POP JUMP JUMPDEST PUSH1 0x8 PUSH1 0x0 DUP3 DUP2 MSTORE PUSH1 0x20 ADD SWAP1 DUP2 MSTORE PUSH1 0x20 ADD PUSH1 0x0 KECCAK256 PUSH1 0x0 SWAP1 SLOAD SWAP1 PUSH2 0x100 EXP SWAP1 DIV PUSH1 0xFF AND PUSH2 0x595 JUMPI PUSH1 0x0 DUP1 REVERT JUMPDEST PUSH1 0x9 PUSH1 0x0 DUP3 DUP2 MSTORE PUSH1 0x20 ADD SWAP1 DUP2 MSTORE PUSH1 0x20 ADD PUSH1 0x0 KECCAK256 PUSH1 0x0 PUSH1 0x7 PUSH1 0x0 DUP5 DUP2 MSTORE PUSH1 0x20 ADD SWAP1 DUP2 MSTORE PUSH1 0x20 ADD PUSH1 0x0 KECCAK256 PUSH1 0x0 SWAP1 SLOAD SWAP1 PUSH2 0x100 EXP SWAP1 DIV PUSH20 0xFFFFFFFFFFFFFFFFFFFFFFFFFFFFFFFFFFFFFFFF AND PUSH20 0xFFFFFFFFFFFFFFFFFFFFFFFFFFFFFFFFFFFFFFFF AND PUSH20 0xFFFFFFFFFFFFFFFFFFFFFFFFFFFFFFFFFFFFFFFF AND DUP2 MSTORE PUSH1 0x20 ADD SWAP1 DUP2 MSTORE PUSH1 0x20 ADD PUSH1 0x0 KECCAK256 PUSH1 0x0 SWAP1 SLOAD SWAP1 PUSH2 0x100 EXP SWAP1 DIV PUSH1 0xFF AND PUSH2 0x62F JUMPI PUSH1 0x0 DUP1 REVERT JUMPDEST PUSH1 0x9 PUSH1 0x0 DUP3 DUP2 MSTORE PUSH1 0x20 ADD SWAP1 DUP2 MSTORE PUSH1 0x20 ADD PUSH1 0x0 KECCAK256 PUSH1 0x0 PUSH1 0x2 PUSH1 0x0 SWAP1 SLOAD SWAP1 PUSH2 0x100 EXP SWAP1 DIV PUSH20 0xFFFFFFFFFFFFFFFFFFFFFFFFFFFFFFFFFFFFFFFF AND PUSH20 0xFFFFFFFFFFFFFFFFFFFFFFFFFFFFFFFFFFFFFFFF AND PUSH20 0xFFFFFFFFFFFFFFFFFFFFFFFFFFFFFFFFFFFFFFFF AND DUP2 MSTORE PUSH1 0x20 ADD SWAP1 DUP2 MSTORE PUSH1 0x20 ADD PUSH1 0x0 KECCAK256 PUSH1 0x0 SWAP1 SLOAD SWAP1 PUSH2 0x100 EXP SWAP1 DIV PUSH1 0xFF AND PUSH2 0x6B8 JUMPI PUSH1 0x0 DUP1 REVERT JUMPDEST PUSH1 0x9 PUSH1 0x0 DUP3 DUP2 MSTORE PUSH1 0x20 ADD SWAP1 DUP2 MSTORE PUSH1 0x20 ADD PUSH1 0x0 KECCAK256 PUSH1 0x0 PUSH1 0x3 PUSH1 0x0 SWAP1 SLOAD SWAP1 PUSH2 0x100 EXP SWAP1 DIV PUSH20 0xFFFFFFFFFFFFFFFFFFFFFFFFFFFFFFFFFFFFFFFF AND PUSH20 0xFFFFFFFFFFFFFFFFFFFFFFFFFFFFFFFFFFFFFFFF AND PUSH20 0xFFFFFFFFFFFFFFFFFFFFFFFFFFFFFFFFFFFFFFFF AND DUP2 MSTORE PUSH1 0x20 ADD SWAP1 DUP2 MSTORE PUSH1 0x20 ADD PUSH1 0x0 KECCAK256 PUSH1 0x0 SWAP1 SLOAD SWAP1 PUSH2 0x100 EXP SWAP1 DIV PUSH1 0xFF AND PUSH2 0x741 JUMPI PUSH1 0x0 DUP1 REVERT JUMPDEST PUSH1 0x5 PUSH1 0x0 DUP3 DUP2 MSTORE PUSH1 0x20 ADD SWAP1 DUP2 MSTORE PUSH1 0x20 ADD PUSH1 0x0 KECCAK256 SLOAD SELFBALANCE LT ISZERO PUSH2 0x761 JUMPI PUSH1 0x0 DUP1 REVERT JUMPDEST PUSH1 0x0 PUSH1 0x4 PUSH1 0x0 DUP4 DUP2 MSTORE PUSH1 0x20 ADD SWAP1 DUP2 MSTORE PUSH1 0x20 ADD PUSH1 0x0 KECCAK256 PUSH1 0x0 PUSH2 0x100 EXP DUP2 SLOAD DUP2 PUSH1 0xFF MUL NOT AND SWAP1 DUP4 ISZERO ISZERO MUL OR SWAP1 SSTORE POP PUSH1 0x0 PUSH1 0x2 PUSH1 0x0 SWAP1 SLOAD SWAP1 PUSH2 0x100 EXP SWAP1 DIV PUSH20 0xFFFFFFFFFFFFFFFFFFFFFFFFFFFFFFFFFFFFFFFF AND PUSH20 0xFFFFFFFFFFFFFFFFFFFFFFFFFFFFFFFFFFFFFFFF AND SELFBALANCE PUSH1 0x40 MLOAD PUSH2 0x7D5 SWAP1 PUSH2 0xDE2 JUMP JUMPDEST PUSH1 0x0 PUSH1 0x40 MLOAD DUP1 DUP4 SUB DUP2 DUP6 DUP8 GAS CALL SWAP3 POP POP POP RETURNDATASIZE DUP1 PUSH1 0x0 DUP2 EQ PUSH2 0x812 JUMPI PUSH1 0x40 MLOAD SWAP2 POP PUSH1 0x1F NOT PUSH1 0x3F RETURNDATASIZE ADD AND DUP3 ADD PUSH1 0x40 MSTORE RETURNDATASIZE DUP3 MSTORE RETURNDATASIZE PUSH1 0x0 PUSH1 0x20 DUP5 ADD RETURNDATACOPY PUSH2 0x817 JUMP JUMPDEST PUSH1 0x60 SWAP2 POP JUMPDEST POP POP SWAP1 POP DUP1 PUSH2 0x825 JUMPI PUSH1 0x0 DUP1 REVERT JUMPDEST PUSH1 0x0 DUP1 SLOAD SWAP1 PUSH2 0x100 EXP SWAP1 DIV PUSH20 0xFFFFFFFFFFFFFFFFFFFFFFFFFFFFFFFFFFFFFFFF AND PUSH20 0xFFFFFFFFFFFFFFFFFFFFFFFFFFFFFFFFFFFFFFFF AND PUSH4 0x23B872DD ADDRESS PUSH1 0x7 PUSH1 0x0 DUP7 DUP2 MSTORE PUSH1 0x20 ADD SWAP1 DUP2 MSTORE PUSH1 0x20 ADD PUSH1 0x0 KECCAK256 PUSH1 0x0 SWAP1 SLOAD SWAP1 PUSH2 0x100 EXP SWAP1 DIV PUSH20 0xFFFFFFFFFFFFFFFFFFFFFFFFFFFFFFFFFFFFFFFF AND DUP6 PUSH1 0x40 MLOAD DUP5 PUSH4 0xFFFFFFFF AND PUSH1 0xE0 SHL DUP2 MSTORE PUSH1 0x4 ADD PUSH2 0x8B5 SWAP4 SWAP3 SWAP2 SWAP1 PUSH2 0xDF7 JUMP JUMPDEST PUSH1 0x0 PUSH1 0x40 MLOAD DUP1 DUP4 SUB DUP2 PUSH1 0x0 DUP8 DUP1 EXTCODESIZE ISZERO DUP1 ISZERO PUSH2 0x8CF JUMPI PUSH1 0x0 DUP1 REVERT JUMPDEST POP GAS CALL ISZERO DUP1 ISZERO PUSH2 0x8E3 JUMPI RETURNDATASIZE PUSH1 0x0 DUP1 RETURNDATACOPY RETURNDATASIZE PUSH1 0x0 REVERT JUMPDEST POP POP POP POP POP POP JUMP JUMPDEST PUSH1 0x9 PUSH1 0x20 MSTORE DUP2 PUSH1 0x0 MSTORE PUSH1 0x40 PUSH1 0x0 KECCAK256 PUSH1 0x20 MSTORE DUP1 PUSH1 0x0 MSTORE PUSH1 0x40 PUSH1 0x0 KECCAK256 PUSH1 0x0 SWAP2 POP SWAP2 POP SWAP1 SLOAD SWAP1 PUSH2 0x100 EXP SWAP1 DIV PUSH1 0xFF AND DUP2 JUMP JUMPDEST PUSH1 0x3 PUSH1 0x0 SWAP1 SLOAD SWAP1 PUSH2 0x100 EXP SWAP1 DIV PUSH20 0xFFFFFFFFFFFFFFFFFFFFFFFFFFFFFFFFFFFFFFFF AND DUP2 JUMP JUMPDEST PUSH1 0x0 DUP1 SLOAD SWAP1 PUSH2 0x100 EXP SWAP1 DIV PUSH20 0xFFFFFFFFFFFFFFFFFFFFFFFFFFFFFFFFFFFFFFFF AND PUSH20 0xFFFFFFFFFFFFFFFFFFFFFFFFFFFFFFFFFFFFFFFF AND PUSH4 0x23B872DD CALLER ADDRESS DUP8 PUSH1 0x40 MLOAD DUP5 PUSH4 0xFFFFFFFF AND PUSH1 0xE0 SHL DUP2 MSTORE PUSH1 0x4 ADD PUSH2 0x99D SWAP4 SWAP3 SWAP2 SWAP1 PUSH2 0xDF7 JUMP JUMPDEST PUSH1 0x0 PUSH1 0x40 MLOAD DUP1 DUP4 SUB DUP2 PUSH1 0x0 DUP8 DUP1 EXTCODESIZE ISZERO DUP1 ISZERO PUSH2 0x9B7 JUMPI PUSH1 0x0 DUP1 REVERT JUMPDEST POP GAS CALL ISZERO DUP1 ISZERO PUSH2 0x9CB JUMPI RETURNDATASIZE PUSH1 0x0 DUP1 RETURNDATACOPY RETURNDATASIZE PUSH1 0x0 REVERT JUMPDEST POP POP POP POP PUSH1 0x1 PUSH1 0x4 PUSH1 0x0 DUP7 DUP2 MSTORE PUSH1 0x20 ADD SWAP1 DUP2 MSTORE PUSH1 0x20 ADD PUSH1 0x0 KECCAK256 PUSH1 0x0 PUSH2 0x100 EXP DUP2 SLOAD DUP2 PUSH1 0xFF MUL NOT AND SWAP1 DUP4 ISZERO ISZERO MUL OR SWAP1 SSTORE POP DUP2 PUSH1 0x5 PUSH1 0x0 DUP7 DUP2 MSTORE PUSH1 0x20 ADD SWAP1 DUP2 MSTORE PUSH1 0x20 ADD PUSH1 0x0 KECCAK256 DUP2 SWAP1 SSTORE POP DUP1 PUSH1 0x6 PUSH1 0x0 DUP7 DUP2 MSTORE PUSH1 0x20 ADD SWAP1 DUP2 MSTORE PUSH1 0x20 ADD PUSH1 0x0 KECCAK256 DUP2 SWAP1 SSTORE POP DUP3 PUSH1 0x7 PUSH1 0x0 DUP7 DUP2 MSTORE PUSH1 0x20 ADD SWAP1 DUP2 MSTORE PUSH1 0x20 ADD PUSH1 0x0 KECCAK256 PUSH1 0x0 PUSH2 0x100 EXP DUP2 SLOAD DUP2 PUSH20 0xFFFFFFFFFFFFFFFFFFFFFFFFFFFFFFFFFFFFFFFF MUL NOT AND SWAP1 DUP4 PUSH20 0xFFFFFFFFFFFFFFFFFFFFFFFFFFFFFFFFFFFFFFFF AND MUL OR SWAP1 SSTORE POP POP POP POP POP JUMP JUMPDEST PUSH1 0x6 PUSH1 0x0 DUP3 DUP2 MSTORE PUSH1 0x20 ADD SWAP1 DUP2 MSTORE PUSH1 0x20 ADD PUSH1 0x0 KECCAK256 SLOAD CALLVALUE LT ISZERO PUSH2 0xAA3 JUMPI PUSH1 0x0 DUP1 REVERT JUMPDEST POP JUMP JUMPDEST PUSH1 0x1 PUSH1 0x0 SWAP1 SLOAD SWAP1 PUSH2 0x100 EXP SWAP1 DIV PUSH20 0xFFFFFFFFFFFFFFFFFFFFFFFFFFFFFFFFFFFFFFFF AND DUP2 JUMP JUMPDEST PUSH1 0x4 PUSH1 0x20 MSTORE DUP1 PUSH1 0x0 MSTORE PUSH1 0x40 PUSH1 0x0 KECCAK256 PUSH1 0x0 SWAP2 POP SLOAD SWAP1 PUSH2 0x100 EXP SWAP1 DIV PUSH1 0xFF AND DUP2 JUMP JUMPDEST PUSH1 0x0 PUSH20 0xFFFFFFFFFFFFFFFFFFFFFFFFFFFFFFFFFFFFFFFF DUP3 AND SWAP1 POP SWAP2 SWAP1 POP JUMP JUMPDEST PUSH1 0x0 PUSH2 0xB17 DUP3 PUSH2 0xAEC JUMP JUMPDEST SWAP1 POP SWAP2 SWAP1 POP JUMP JUMPDEST PUSH2 0xB27 DUP2 PUSH2 0xB0C JUMP JUMPDEST DUP3 MSTORE POP POP JUMP JUMPDEST PUSH1 0x0 PUSH1 0x20 DUP3 ADD SWAP1 POP PUSH2 0xB42 PUSH1 0x0 DUP4 ADD DUP5 PUSH2 0xB1E JUMP JUMPDEST SWAP3 SWAP2 POP POP JUMP JUMPDEST PUSH1 0x0 DUP2 SWAP1 POP SWAP2 SWAP1 POP JUMP JUMPDEST PUSH2 0xB5B DUP2 PUSH2 0xB48 JUMP JUMPDEST DUP3 MSTORE POP POP JUMP JUMPDEST PUSH1 0x0 PUSH1 0x20 DUP3 ADD SWAP1 POP PUSH2 0xB76 PUSH1 0x0 DUP4 ADD DUP5 PUSH2 0xB52 JUMP JUMPDEST SWAP3 SWAP2 POP POP JUMP JUMPDEST PUSH1 0x0 DUP1 REVERT JUMPDEST PUSH2 0xB8A DUP2 PUSH2 0xB48 JUMP JUMPDEST DUP2 EQ PUSH2 0xB95 JUMPI PUSH1 0x0 DUP1 REVERT JUMPDEST POP JUMP JUMPDEST PUSH1 0x0 DUP2 CALLDATALOAD SWAP1 POP PUSH2 0xBA7 DUP2 PUSH2 0xB81 JUMP JUMPDEST SWAP3 SWAP2 POP POP JUMP JUMPDEST PUSH1 0x0 PUSH1 0x20 DUP3 DUP5 SUB SLT ISZERO PUSH2 0xBC3 JUMPI PUSH2 0xBC2 PUSH2 0xB7C JUMP JUMPDEST JUMPDEST PUSH1 0x0 PUSH2 0xBD1 DUP5 DUP3 DUP6 ADD PUSH2 0xB98 JUMP JUMPDEST SWAP2 POP POP SWAP3 SWAP2 POP POP JUMP JUMPDEST PUSH1 0x0 PUSH2 0xBE5 DUP3 PUSH2 0xAEC JUMP JUMPDEST SWAP1 POP SWAP2 SWAP1 POP JUMP JUMPDEST PUSH2 0xBF5 DUP2 PUSH2 0xBDA JUMP JUMPDEST DUP3 MSTORE POP POP JUMP JUMPDEST PUSH1 0x0 PUSH1 0x20 DUP3 ADD SWAP1 POP PUSH2 0xC10 PUSH1 0x0 DUP4 ADD DUP5 PUSH2 0xBEC JUMP JUMPDEST SWAP3 SWAP2 POP POP JUMP JUMPDEST PUSH1 0x0 DUP2 ISZERO ISZERO SWAP1 POP SWAP2 SWAP1 POP JUMP JUMPDEST PUSH2 0xC2B DUP2 PUSH2 0xC16 JUMP JUMPDEST DUP3 MSTORE POP POP JUMP JUMPDEST PUSH1 0x0 PUSH1 0x20 DUP3 ADD SWAP1 POP PUSH2 0xC46 PUSH1 0x0 DUP4 ADD DUP5 PUSH2 0xC22 JUMP JUMPDEST SWAP3 SWAP2 POP POP JUMP JUMPDEST PUSH2 0xC55 DUP2 PUSH2 0xC16 JUMP JUMPDEST DUP2 EQ PUSH2 0xC60 JUMPI PUSH1 0x0 DUP1 REVERT JUMPDEST POP JUMP JUMPDEST PUSH1 0x0 DUP2 CALLDATALOAD SWAP1 POP PUSH2 0xC72 DUP2 PUSH2 0xC4C JUMP JUMPDEST SWAP3 SWAP2 POP POP JUMP JUMPDEST PUSH1 0x0 DUP1 PUSH1 0x40 DUP4 DUP6 SUB SLT ISZERO PUSH2 0xC8F JUMPI PUSH2 0xC8E PUSH2 0xB7C JUMP JUMPDEST JUMPDEST PUSH1 0x0 PUSH2 0xC9D DUP6 DUP3 DUP7 ADD PUSH2 0xB98 JUMP JUMPDEST SWAP3 POP POP PUSH1 0x20 PUSH2 0xCAE DUP6 DUP3 DUP7 ADD PUSH2 0xC63 JUMP JUMPDEST SWAP2 POP POP SWAP3 POP SWAP3 SWAP1 POP JUMP JUMPDEST PUSH2 0xCC1 DUP2 PUSH2 0xBDA JUMP JUMPDEST DUP2 EQ PUSH2 0xCCC JUMPI PUSH1 0x0 DUP1 REVERT JUMPDEST POP JUMP JUMPDEST PUSH1 0x0 DUP2 CALLDATALOAD SWAP1 POP PUSH2 0xCDE DUP2 PUSH2 0xCB8 JUMP JUMPDEST SWAP3 SWAP2 POP POP JUMP JUMPDEST PUSH1 0x0 DUP1 PUSH1 0x40 DUP4 DUP6 SUB SLT ISZERO PUSH2 0xCFB JUMPI PUSH2 0xCFA PUSH2 0xB7C JUMP JUMPDEST JUMPDEST PUSH1 0x0 PUSH2 0xD09 DUP6 DUP3 DUP7 ADD PUSH2 0xB98 JUMP JUMPDEST SWAP3 POP POP PUSH1 0x20 PUSH2 0xD1A DUP6 DUP3 DUP7 ADD PUSH2 0xCCF JUMP JUMPDEST SWAP2 POP POP SWAP3 POP SWAP3 SWAP1 POP JUMP JUMPDEST PUSH1 0x0 DUP1 PUSH1 0x0 DUP1 PUSH1 0x80 DUP6 DUP8 SUB SLT ISZERO PUSH2 0xD3E JUMPI PUSH2 0xD3D PUSH2 0xB7C JUMP JUMPDEST JUMPDEST PUSH1 0x0 PUSH2 0xD4C DUP8 DUP3 DUP9 ADD PUSH2 0xB98 JUMP JUMPDEST SWAP5 POP POP PUSH1 0x20 PUSH2 0xD5D DUP8 DUP3 DUP9 ADD PUSH2 0xCCF JUMP JUMPDEST SWAP4 POP POP PUSH1 0x40 PUSH2 0xD6E DUP8 DUP3 DUP9 ADD PUSH2 0xB98 JUMP JUMPDEST SWAP3 POP POP PUSH1 0x60 PUSH2 0xD7F DUP8 DUP3 DUP9 ADD PUSH2 0xB98 JUMP JUMPDEST SWAP2 POP POP SWAP3 SWAP6 SWAP2 SWAP5 POP SWAP3 POP JUMP JUMPDEST PUSH1 0x0 DUP2 SWAP1 POP SWAP3 SWAP2 POP POP JUMP JUMPDEST PUSH32 0x2000000000000000000000000000000000000000000000000000000000000000 PUSH1 0x0 DUP3 ADD MSTORE POP JUMP JUMPDEST PUSH1 0x0 PUSH2 0xDCC PUSH1 0x1 DUP4 PUSH2 0xD8B JUMP JUMPDEST SWAP2 POP PUSH2 0xDD7 DUP3 PUSH2 0xD96 JUMP JUMPDEST PUSH1 0x1 DUP3 ADD SWAP1 POP SWAP2 SWAP1 POP JUMP JUMPDEST PUSH1 0x0 PUSH2 0xDED DUP3 PUSH2 0xDBF JUMP JUMPDEST SWAP2 POP DUP2 SWAP1 POP SWAP2 SWAP1 POP JUMP JUMPDEST PUSH1 0x0 PUSH1 0x60 DUP3 ADD SWAP1 POP PUSH2 0xE0C PUSH1 0x0 DUP4 ADD DUP7 PUSH2 0xBEC JUMP JUMPDEST PUSH2 0xE19 PUSH1 0x20 DUP4 ADD DUP6 PUSH2 0xBEC JUMP JUMPDEST PUSH2 0xE26 PUSH1 0x40 DUP4 ADD DUP5 PUSH2 0xB52 JUMP JUMPDEST SWAP5 SWAP4 POP POP POP POP JUMP INVALID LOG2 PUSH5 0x6970667358 0x22 SLT KECCAK256 REVERT SMOD DUP7 DUP2 0xBA PUSH18 0xE91136687F2209354E02A887346447411E24 0xE6 STOP 0xF6 0xEA SWAP6 0xED 0xEE DUP5 PUSH5 0x736F6C6343 STOP ADDMOD GT STOP CALLER "},"methodIdentifiers":{"approval(uint256,address)":"b848de35","approveSale(uint256)":"14a72feb","buyer(uint256)":"4dd4acaf","depositEarnest(uint256)":"e740f770","escrowAmount(uint256)":"5d19e56c","finalizeSale(uint256)":"aa929380","getBalance()":"12065fe0","inspectionPassed(uint256)":"5eed5fff","inspector()":"ed2cee9e","isListed(uint256)":"fcce4883","lender()":"bcead63e","list(uint256,address,uint256,uint256)":"c9f0ec7e","nftAddress()":"5bf8633a","purchasePrice(uint256)":"77fbc4ae","seller()":"08551a53","updateInspectionStatus(uint256,bool)":"9d0e5fd6"}}}}}