{
  "_format": "hh-sol-artifact-1",
  "contractName": "Escrow",
  "sourceName": "contracts/Escrow.sol",
  "abi": [
    {
      "inputs": [
        {
          "internalType": "address",
          "name": "_nftaddress",
          "type": "address"
        },
        {
          "internalType": "address",
          "name": "_inspector",
          "type": "address"
        },
        {
          "internalType": "address payable",
          "name": "_seller",
          "type": "address"
        },
        {
          "internalType": "address",
          "name": "_lender",
          "type": "address"
        }
      ],
      "stateMutability": "nonpayable",
      "type": "constructor"
    },
    {
      "inputs": [
        {
          "internalType": "uint256",
          "name": "",
          "type": "uint256"
        },
        {
          "internalType": "address",
          "name": "",
          "type": "address"
        }
      ],
      "name": "approval",
      "outputs": [
        {
          "internalType": "bool",
          "name": "",
          "type": "bool"
        }
      ],
      "stateMutability": "view",
      "type": "function"
    },
    {
      "inputs": [
        {
          "internalType": "uint256",
          "name": "_nftID",
          "type": "uint256"
        }
      ],
      "name": "approveSale",
      "outputs": [],
      "stateMutability": "nonpayable",
      "type": "function"
    },
    {
      "inputs": [
        {
          "internalType": "uint256",
          "name": "",
          "type": "uint256"
        }
      ],
      "name": "buyer",
      "outputs": [
        {
          "internalType": "address",
          "name": "",
          "type": "address"
        }
      ],
      "stateMutability": "view",
      "type": "function"
    },
    {
      "inputs": [
        {
          "internalType": "uint256",
          "name": "_nftID",
          "type": "uint256"
        }
      ],
      "name": "depositEarnest",
      "outputs": [],
      "stateMutability": "payable",
      "type": "function"
    },
    {
      "inputs": [
        {
          "internalType": "uint256",
          "name": "",
          "type": "uint256"
        }
      ],
      "name": "escrowAmount",
      "outputs": [
        {
          "internalType": "uint256",
          "name": "",
          "type": "uint256"
        }
      ],
      "stateMutability": "view",
      "type": "function"
    },
    {
      "inputs": [
        {
          "internalType": "uint256",
          "name": "_nftID",
          "type": "uint256"
        }
      ],
      "name": "finalizeSale",
      "outputs": [],
      "stateMutability": "nonpayable",
      "type": "function"
    },
    {
      "inputs": [],
      "name": "getBalance",
      "outputs": [
        {
          "internalType": "uint256",
          "name": "",
          "type": "uint256"
        }
      ],
      "stateMutability": "view",
      "type": "function"
    },
    {
      "inputs": [
        {
          "internalType": "uint256",
          "name": "",
          "type": "uint256"
        }
      ],
      "name": "inspectionPassed",
      "outputs": [
        {
          "internalType": "bool",
          "name": "",
          "type": "bool"
        }
      ],
      "stateMutability": "view",
      "type": "function"
    },
    {
      "inputs": [],
      "name": "inspector",
      "outputs": [
        {
          "internalType": "address",
          "name": "",
          "type": "address"
        }
      ],
      "stateMutability": "view",
      "type": "function"
    },
    {
      "inputs": [
        {
          "internalType": "uint256",
          "name": "",
          "type": "uint256"
        }
      ],
      "name": "isListed",
      "outputs": [
        {
          "internalType": "bool",
          "name": "",
          "type": "bool"
        }
      ],
      "stateMutability": "view",
      "type": "function"
    },
    {
      "inputs": [],
      "name": "lender",
      "outputs": [
        {
          "internalType": "address",
          "name": "",
          "type": "address"
        }
      ],
      "stateMutability": "view",
      "type": "function"
    },
    {
      "inputs": [
        {
          "internalType": "uint256",
          "name": "_nftID",
          "type": "uint256"
        },
        {
          "internalType": "address",
          "name": "_buyer",
          "type": "address"
        },
        {
          "internalType": "uint256",
          "name": "_purchasePrice",
          "type": "uint256"
        },
        {
          "internalType": "uint256",
          "name": "_escrowAmount",
          "type": "uint256"
        }
      ],
      "name": "list",
      "outputs": [],
      "stateMutability": "payable",
      "type": "function"
    },
    {
      "inputs": [],
      "name": "nftAddress",
      "outputs": [
        {
          "internalType": "address",
          "name": "",
          "type": "address"
        }
      ],
      "stateMutability": "view",
      "type": "function"
    },
    {
      "inputs": [
        {
          "internalType": "uint256",
          "name": "",
          "type": "uint256"
        }
      ],
      "name": "purchasePrice",
      "outputs": [
        {
          "internalType": "uint256",
          "name": "",
          "type": "uint256"
        }
      ],
      "stateMutability": "view",
      "type": "function"
    },
    {
      "inputs": [],
      "name": "seller",
      "outputs": [
        {
          "internalType": "address payable",
          "name": "",
          "type": "address"
        }
      ],
      "stateMutability": "view",
      "type": "function"
    },
    {
      "inputs": [
        {
          "internalType": "uint256",
          "name": "_nftID",
          "type": "uint256"
        },
        {
          "internalType": "bool",
          "name": "_passsed",
          "type": "bool"
        }
      ],
      "name": "updateInspectionStatus",
      "outputs": [],
      "stateMutability": "nonpayable",
      "type": "function"
    },
    {
      "stateMutability": "payable",
      "type": "receive"
    }
  ],
  "bytecode": "0x60806040523480156200001157600080fd5b50604051620010d9380380620010d98339818101604052810190620000379190620001f3565b836000806101000a81548173ffffffffffffffffffffffffffffffffffffffff021916908373ffffffffffffffffffffffffffffffffffffffff16021790555082600160006101000a81548173ffffffffffffffffffffffffffffffffffffffff021916908373ffffffffffffffffffffffffffffffffffffffff16021790555081600260006101000a81548173ffffffffffffffffffffffffffffffffffffffff021916908373ffffffffffffffffffffffffffffffffffffffff16021790555080600360006101000a81548173ffffffffffffffffffffffffffffffffffffffff021916908373ffffffffffffffffffffffffffffffffffffffff1602179055505050505062000265565b600080fd5b600073ffffffffffffffffffffffffffffffffffffffff82169050919050565b6000620001768262000149565b9050919050565b620001888162000169565b81146200019457600080fd5b50565b600081519050620001a8816200017d565b92915050565b6000620001bb8262000149565b9050919050565b620001cd81620001ae565b8114620001d957600080fd5b50565b600081519050620001ed81620001c2565b92915050565b6000806000806080858703121562000210576200020f62000144565b5b6000620002208782880162000197565b9450506020620002338782880162000197565b93505060406200024687828801620001dc565b9250506060620002598782880162000197565b91505092959194509250565b610e6480620002756000396000f3fe6080604052600436106100f75760003560e01c80639d0e5fd61161008a578063c9f0ec7e11610059578063c9f0ec7e1461035b578063e740f77014610377578063ed2cee9e14610393578063fcce4883146103be576100fe565b80639d0e5fd6146102a1578063aa929380146102ca578063b848de35146102f3578063bcead63e14610330576100fe565b80635bf8633a116100c65780635bf8633a146101bf5780635d19e56c146101ea5780635eed5fff1461022757806377fbc4ae14610264576100fe565b806308551a531461010357806312065fe01461012e57806314a72feb146101595780634dd4acaf14610182576100fe565b366100fe57005b600080fd5b34801561010f57600080fd5b506101186103fb565b6040516101259190610b2d565b60405180910390f35b34801561013a57600080fd5b50610143610421565b6040516101509190610b61565b60405180910390f35b34801561016557600080fd5b50610180600480360381019061017b9190610bad565b610429565b005b34801561018e57600080fd5b506101a960048036038101906101a49190610bad565b610495565b6040516101b69190610bfb565b60405180910390f35b3480156101cb57600080fd5b506101d46104c8565b6040516101e19190610bfb565b60405180910390f35b3480156101f657600080fd5b50610211600480360381019061020c9190610bad565b6104ec565b60405161021e9190610b61565b60405180910390f35b34801561023357600080fd5b5061024e60048036038101906102499190610bad565b610504565b60405161025b9190610c31565b60405180910390f35b34801561027057600080fd5b5061028b60048036038101906102869190610bad565b610524565b6040516102989190610b61565b60405180910390f35b3480156102ad57600080fd5b506102c860048036038101906102c39190610c78565b61053c565b005b3480156102d657600080fd5b506102f160048036038101906102ec9190610bad565b61056b565b005b3480156102ff57600080fd5b5061031a60048036038101906103159190610ce4565b6108eb565b6040516103279190610c31565b60405180910390f35b34801561033c57600080fd5b5061034561091a565b6040516103529190610bfb565b60405180910390f35b61037560048036038101906103709190610d24565b610940565b005b610391600480360381019061038c9190610bad565b610a83565b005b34801561039f57600080fd5b506103a8610aa6565b6040516103b59190610bfb565b60405180910390f35b3480156103ca57600080fd5b506103e560048036038101906103e09190610bad565b610acc565b6040516103f29190610c31565b60405180910390f35b600260009054906101000a900473ffffffffffffffffffffffffffffffffffffffff1681565b600047905090565b60016009600083815260200190815260200160002060003373ffffffffffffffffffffffffffffffffffffffff1673ffffffffffffffffffffffffffffffffffffffff16815260200190815260200160002060006101000a81548160ff02191690831515021790555050565b60076020528060005260406000206000915054906101000a900473ffffffffffffffffffffffffffffffffffffffff1681565b60008054906101000a900473ffffffffffffffffffffffffffffffffffffffff1681565b60066020528060005260406000206000915090505481565b60086020528060005260406000206000915054906101000a900460ff1681565b60056020528060005260406000206000915090505481565b806008600084815260200190815260200160002060006101000a81548160ff0219169083151502179055505050565b6008600082815260200190815260200160002060009054906101000a900460ff1661059557600080fd5b6009600082815260200190815260200160002060006007600084815260200190815260200160002060009054906101000a900473ffffffffffffffffffffffffffffffffffffffff1673ffffffffffffffffffffffffffffffffffffffff1673ffffffffffffffffffffffffffffffffffffffff16815260200190815260200160002060009054906101000a900460ff1661062f57600080fd5b600960008281526020019081526020016000206000600260009054906101000a900473ffffffffffffffffffffffffffffffffffffffff1673ffffffffffffffffffffffffffffffffffffffff1673ffffffffffffffffffffffffffffffffffffffff16815260200190815260200160002060009054906101000a900460ff166106b857600080fd5b600960008281526020019081526020016000206000600360009054906101000a900473ffffffffffffffffffffffffffffffffffffffff1673ffffffffffffffffffffffffffffffffffffffff1673ffffffffffffffffffffffffffffffffffffffff16815260200190815260200160002060009054906101000a900460ff1661074157600080fd5b600560008281526020019081526020016000205447101561076157600080fd5b60006004600083815260200190815260200160002060006101000a81548160ff0219169083151502179055506000600260009054906101000a900473ffffffffffffffffffffffffffffffffffffffff1673ffffffffffffffffffffffffffffffffffffffff16476040516107d590610de2565b60006040518083038185875af1925050503d8060008114610812576040519150601f19603f3d011682016040523d82523d6000602084013e610817565b606091505b505090508061082557600080fd5b60008054906101000a900473ffffffffffffffffffffffffffffffffffffffff1673ffffffffffffffffffffffffffffffffffffffff166323b872dd306007600086815260200190815260200160002060009054906101000a900473ffffffffffffffffffffffffffffffffffffffff16856040518463ffffffff1660e01b81526004016108b593929190610df7565b600060405180830381600087803b1580156108cf57600080fd5b505af11580156108e3573d6000803e3d6000fd5b505050505050565b60096020528160005260406000206020528060005260406000206000915091509054906101000a900460ff1681565b600360009054906101000a900473ffffffffffffffffffffffffffffffffffffffff1681565b60008054906101000a900473ffffffffffffffffffffffffffffffffffffffff1673ffffffffffffffffffffffffffffffffffffffff166323b872dd3330876040518463ffffffff1660e01b815260040161099d93929190610df7565b600060405180830381600087803b1580156109b757600080fd5b505af11580156109cb573d6000803e3d6000fd5b5050505060016004600086815260200190815260200160002060006101000a81548160ff021916908315150217905550816005600086815260200190815260200160002081905550806006600086815260200190815260200160002081905550826007600086815260200190815260200160002060006101000a81548173ffffffffffffffffffffffffffffffffffffffff021916908373ffffffffffffffffffffffffffffffffffffffff16021790555050505050565b6006600082815260200190815260200160002054341015610aa357600080fd5b50565b600160009054906101000a900473ffffffffffffffffffffffffffffffffffffffff1681565b60046020528060005260406000206000915054906101000a900460ff1681565b600073ffffffffffffffffffffffffffffffffffffffff82169050919050565b6000610b1782610aec565b9050919050565b610b2781610b0c565b82525050565b6000602082019050610b426000830184610b1e565b92915050565b6000819050919050565b610b5b81610b48565b82525050565b6000602082019050610b766000830184610b52565b92915050565b600080fd5b610b8a81610b48565b8114610b9557600080fd5b50565b600081359050610ba781610b81565b92915050565b600060208284031215610bc357610bc2610b7c565b5b6000610bd184828501610b98565b91505092915050565b6000610be582610aec565b9050919050565b610bf581610bda565b82525050565b6000602082019050610c106000830184610bec565b92915050565b60008115159050919050565b610c2b81610c16565b82525050565b6000602082019050610c466000830184610c22565b92915050565b610c5581610c16565b8114610c6057600080fd5b50565b600081359050610c7281610c4c565b92915050565b60008060408385031215610c8f57610c8e610b7c565b5b6000610c9d85828601610b98565b9250506020610cae85828601610c63565b9150509250929050565b610cc181610bda565b8114610ccc57600080fd5b50565b600081359050610cde81610cb8565b92915050565b60008060408385031215610cfb57610cfa610b7c565b5b6000610d0985828601610b98565b9250506020610d1a85828601610ccf565b9150509250929050565b60008060008060808587031215610d3e57610d3d610b7c565b5b6000610d4c87828801610b98565b9450506020610d5d87828801610ccf565b9350506040610d6e87828801610b98565b9250506060610d7f87828801610b98565b91505092959194509250565b600081905092915050565b7f2000000000000000000000000000000000000000000000000000000000000000600082015250565b6000610dcc600183610d8b565b9150610dd782610d96565b600182019050919050565b6000610ded82610dbf565b9150819050919050565b6000606082019050610e0c6000830186610bec565b610e196020830185610bec565b610e266040830184610b52565b94935050505056fea2646970667358221220fd078681ba71e91136687f2209354e02a887346447411e24e600f6ea95edee8464736f6c63430008110033",
  "linkReferences": {},
  "deployedLinkReferences": {}
}