{
  "_format": "hh-sol-artifact-1",
  "contractName": "Escrow",
  "sourceName": "contracts/Escrow.sol",
  "abi": [
    {
      "inputs": [
        {
          "internalType": "address",
          "name": "_nftAddress",
          "type": "address"
        },
        {
          "internalType": "address payable",
          "name": "_seller",
          "type": "address"
        },
        {
          "internalType": "address",
          "name": "_inspector",
          "type": "address"
        },
        {
          "internalType": "address",
          "name": "_lender",
          "type": "address"
        }
      ],
      "stateMutability": "nonpayable",
      "type": "constructor"
    },
    {
      "inputs": [
        {
          "internalType": "uint256",
          "name": "",
          "type": "uint256"
        },
        {
          "internalType": "address",
          "name": "",
          "type": "address"
        }
      ],
      "name": "approval",
      "outputs": [
        {
          "internalType": "bool",
          "name": "",
          "type": "bool"
        }
      ],
      "stateMutability": "view",
      "type": "function"
    },
    {
      "inputs": [
        {
          "internalType": "uint256",
          "name": "_nftID",
          "type": "uint256"
        }
      ],
      "name": "approveSale",
      "outputs": [],
      "stateMutability": "nonpayable",
      "type": "function"
    },
    {
      "inputs": [
        {
          "internalType": "uint256",
          "name": "",
          "type": "uint256"
        }
      ],
      "name": "buyer",
      "outputs": [
        {
          "internalType": "address",
          "name": "",
          "type": "address"
        }
      ],
      "stateMutability": "view",
      "type": "function"
    },
    {
      "inputs": [
        {
          "internalType": "uint256",
          "name": "_nftID",
          "type": "uint256"
        }
      ],
      "name": "cancelSale",
      "outputs": [],
      "stateMutability": "nonpayable",
      "type": "function"
    },
    {
      "inputs": [
        {
          "internalType": "uint256",
          "name": "_nftID",
          "type": "uint256"
        }
      ],
      "name": "depositEarnest",
      "outputs": [],
      "stateMutability": "payable",
      "type": "function"
    },
    {
      "inputs": [
        {
          "internalType": "uint256",
          "name": "",
          "type": "uint256"
        }
      ],
      "name": "escrowAmount",
      "outputs": [
        {
          "internalType": "uint256",
          "name": "",
          "type": "uint256"
        }
      ],
      "stateMutability": "view",
      "type": "function"
    },
    {
      "inputs": [
        {
          "internalType": "uint256",
          "name": "_nftID",
          "type": "uint256"
        }
      ],
      "name": "finalizeSale",
      "outputs": [],
      "stateMutability": "nonpayable",
      "type": "function"
    },
    {
      "inputs": [],
      "name": "getBalance",
      "outputs": [
        {
          "internalType": "uint256",
          "name": "",
          "type": "uint256"
        }
      ],
      "stateMutability": "view",
      "type": "function"
    },
    {
      "inputs": [
        {
          "internalType": "uint256",
          "name": "",
          "type": "uint256"
        }
      ],
      "name": "inspectionPassed",
      "outputs": [
        {
          "internalType": "bool",
          "name": "",
          "type": "bool"
        }
      ],
      "stateMutability": "view",
      "type": "function"
    },
    {
      "inputs": [],
      "name": "inspector",
      "outputs": [
        {
          "internalType": "address",
          "name": "",
          "type": "address"
        }
      ],
      "stateMutability": "view",
      "type": "function"
    },
    {
      "inputs": [
        {
          "internalType": "uint256",
          "name": "",
          "type": "uint256"
        }
      ],
      "name": "isListed",
      "outputs": [
        {
          "internalType": "bool",
          "name": "",
          "type": "bool"
        }
      ],
      "stateMutability": "view",
      "type": "function"
    },
    {
      "inputs": [],
      "name": "lender",
      "outputs": [
        {
          "internalType": "address",
          "name": "",
          "type": "address"
        }
      ],
      "stateMutability": "view",
      "type": "function"
    },
    {
      "inputs": [
        {
          "internalType": "uint256",
          "name": "_nftID",
          "type": "uint256"
        },
        {
          "internalType": "address",
          "name": "_buyer",
          "type": "address"
        },
        {
          "internalType": "uint256",
          "name": "_purchasePrice",
          "type": "uint256"
        },
        {
          "internalType": "uint256",
          "name": "_escrowAmount",
          "type": "uint256"
        }
      ],
      "name": "list",
      "outputs": [],
      "stateMutability": "payable",
      "type": "function"
    },
    {
      "inputs": [],
      "name": "nftAddress",
      "outputs": [
        {
          "internalType": "address",
          "name": "",
          "type": "address"
        }
      ],
      "stateMutability": "view",
      "type": "function"
    },
    {
      "inputs": [
        {
          "internalType": "uint256",
          "name": "",
          "type": "uint256"
        }
      ],
      "name": "purchasePrice",
      "outputs": [
        {
          "internalType": "uint256",
          "name": "",
          "type": "uint256"
        }
      ],
      "stateMutability": "view",
      "type": "function"
    },
    {
      "inputs": [],
      "name": "seller",
      "outputs": [
        {
          "internalType": "address payable",
          "name": "",
          "type": "address"
        }
      ],
      "stateMutability": "view",
      "type": "function"
    },
    {
      "inputs": [
        {
          "internalType": "uint256",
          "name": "_nftID",
          "type": "uint256"
        },
        {
          "internalType": "bool",
          "name": "_passsed",
          "type": "bool"
        }
      ],
      "name": "updateInspectionStatus",
      "outputs": [],
      "stateMutability": "nonpayable",
      "type": "function"
    },
    {
      "stateMutability": "payable",
      "type": "receive"
    }
  ],
  "bytecode": "0x60806040523480156200001157600080fd5b5060405162001563380380620015638339818101604052810190620000379190620001f3565b836000806101000a81548173ffffffffffffffffffffffffffffffffffffffff021916908373ffffffffffffffffffffffffffffffffffffffff16021790555082600260006101000a81548173ffffffffffffffffffffffffffffffffffffffff021916908373ffffffffffffffffffffffffffffffffffffffff16021790555081600160006101000a81548173ffffffffffffffffffffffffffffffffffffffff021916908373ffffffffffffffffffffffffffffffffffffffff16021790555080600360006101000a81548173ffffffffffffffffffffffffffffffffffffffff021916908373ffffffffffffffffffffffffffffffffffffffff1602179055505050505062000265565b600080fd5b600073ffffffffffffffffffffffffffffffffffffffff82169050919050565b6000620001768262000149565b9050919050565b620001888162000169565b81146200019457600080fd5b50565b600081519050620001a8816200017d565b92915050565b6000620001bb8262000149565b9050919050565b620001cd81620001ae565b8114620001d957600080fd5b50565b600081519050620001ed81620001c2565b92915050565b6000806000806080858703121562000210576200020f62000144565b5b6000620002208782880162000197565b94505060206200023387828801620001dc565b9350506040620002468782880162000197565b9250506060620002598782880162000197565b91505092959194509250565b6112ee80620002756000396000f3fe6080604052600436106101025760003560e01c80639d0e5fd611610095578063bd94b00511610064578063bd94b00514610366578063c9f0ec7e1461038f578063e740f770146103ab578063ed2cee9e146103c7578063fcce4883146103f257610109565b80639d0e5fd6146102ac578063aa929380146102d5578063b848de35146102fe578063bcead63e1461033b57610109565b80635bf8633a116100d15780635bf8633a146101ca5780635d19e56c146101f55780635eed5fff1461023257806377fbc4ae1461026f57610109565b806308551a531461010e57806312065fe01461013957806314a72feb146101645780634dd4acaf1461018d57610109565b3661010957005b600080fd5b34801561011a57600080fd5b5061012361042f565b6040516101309190610e3c565b60405180910390f35b34801561014557600080fd5b5061014e610455565b60405161015b9190610e70565b60405180910390f35b34801561017057600080fd5b5061018b60048036038101906101869190610ebc565b61045d565b005b34801561019957600080fd5b506101b460048036038101906101af9190610ebc565b6104c9565b6040516101c19190610f0a565b60405180910390f35b3480156101d657600080fd5b506101df6104fc565b6040516101ec9190610f0a565b60405180910390f35b34801561020157600080fd5b5061021c60048036038101906102179190610ebc565b610520565b6040516102299190610e70565b60405180910390f35b34801561023e57600080fd5b5061025960048036038101906102549190610ebc565b610538565b6040516102669190610f40565b60405180910390f35b34801561027b57600080fd5b5061029660048036038101906102919190610ebc565b610558565b6040516102a39190610e70565b60405180910390f35b3480156102b857600080fd5b506102d360048036038101906102ce9190610f87565b610570565b005b3480156102e157600080fd5b506102fc60048036038101906102f79190610ebc565b61062f565b005b34801561030a57600080fd5b5061032560048036038101906103209190610ff3565b6109af565b6040516103329190610f40565b60405180910390f35b34801561034757600080fd5b506103506109de565b60405161035d9190610f0a565b60405180910390f35b34801561037257600080fd5b5061038d60048036038101906103889190610ebc565b610a04565b005b6103a960048036038101906103a49190611033565b610b1c565b005b6103c560048036038101906103c09190610ebc565b610cef565b005b3480156103d357600080fd5b506103dc610db5565b6040516103e99190610f0a565b60405180910390f35b3480156103fe57600080fd5b5061041960048036038101906104149190610ebc565b610ddb565b6040516104269190610f40565b60405180910390f35b600260009054906101000a900473ffffffffffffffffffffffffffffffffffffffff1681565b600047905090565b60016009600083815260200190815260200160002060003373ffffffffffffffffffffffffffffffffffffffff1673ffffffffffffffffffffffffffffffffffffffff16815260200190815260200160002060006101000a81548160ff02191690831515021790555050565b60076020528060005260406000206000915054906101000a900473ffffffffffffffffffffffffffffffffffffffff1681565b60008054906101000a900473ffffffffffffffffffffffffffffffffffffffff1681565b60066020528060005260406000206000915090505481565b60086020528060005260406000206000915054906101000a900460ff1681565b60056020528060005260406000206000915090505481565b600160009054906101000a900473ffffffffffffffffffffffffffffffffffffffff1673ffffffffffffffffffffffffffffffffffffffff163373ffffffffffffffffffffffffffffffffffffffff1614610600576040517f08c379a00000000000000000000000000000000000000000000000000000000081526004016105f79061111d565b60405180910390fd5b806008600084815260200190815260200160002060006101000a81548160ff0219169083151502179055505050565b6008600082815260200190815260200160002060009054906101000a900460ff1661065957600080fd5b6009600082815260200190815260200160002060006007600084815260200190815260200160002060009054906101000a900473ffffffffffffffffffffffffffffffffffffffff1673ffffffffffffffffffffffffffffffffffffffff1673ffffffffffffffffffffffffffffffffffffffff16815260200190815260200160002060009054906101000a900460ff166106f357600080fd5b600960008281526020019081526020016000206000600260009054906101000a900473ffffffffffffffffffffffffffffffffffffffff1673ffffffffffffffffffffffffffffffffffffffff1673ffffffffffffffffffffffffffffffffffffffff16815260200190815260200160002060009054906101000a900460ff1661077c57600080fd5b600960008281526020019081526020016000206000600360009054906101000a900473ffffffffffffffffffffffffffffffffffffffff1673ffffffffffffffffffffffffffffffffffffffff1673ffffffffffffffffffffffffffffffffffffffff16815260200190815260200160002060009054906101000a900460ff1661080557600080fd5b600560008281526020019081526020016000205447101561082557600080fd5b60006004600083815260200190815260200160002060006101000a81548160ff0219169083151502179055506000600260009054906101000a900473ffffffffffffffffffffffffffffffffffffffff1673ffffffffffffffffffffffffffffffffffffffff164760405161089990611194565b60006040518083038185875af1925050503d80600081146108d6576040519150601f19603f3d011682016040523d82523d6000602084013e6108db565b606091505b50509050806108e957600080fd5b60008054906101000a900473ffffffffffffffffffffffffffffffffffffffff1673ffffffffffffffffffffffffffffffffffffffff166323b872dd306007600086815260200190815260200160002060009054906101000a900473ffffffffffffffffffffffffffffffffffffffff16856040518463ffffffff1660e01b8152600401610979939291906111a9565b600060405180830381600087803b15801561099357600080fd5b505af11580156109a7573d6000803e3d6000fd5b505050505050565b60096020528160005260406000206020528060005260406000206000915091509054906101000a900460ff1681565b600360009054906101000a900473ffffffffffffffffffffffffffffffffffffffff1681565b600015156008600083815260200190815260200160002060009054906101000a900460ff16151503610aaf576007600082815260200190815260200160002060009054906101000a900473ffffffffffffffffffffffffffffffffffffffff1673ffffffffffffffffffffffffffffffffffffffff166108fc479081150290604051600060405180830381858888f19350505050158015610aa9573d6000803e3d6000fd5b50610b19565b600260009054906101000a900473ffffffffffffffffffffffffffffffffffffffff1673ffffffffffffffffffffffffffffffffffffffff166108fc479081150290604051600060405180830381858888f19350505050158015610b17573d6000803e3d6000fd5b505b50565b600260009054906101000a900473ffffffffffffffffffffffffffffffffffffffff1673ffffffffffffffffffffffffffffffffffffffff163373ffffffffffffffffffffffffffffffffffffffff1614610bac576040517f08c379a0000000000000000000000000000000000000000000000000000000008152600401610ba39061122c565b60405180910390fd5b60008054906101000a900473ffffffffffffffffffffffffffffffffffffffff1673ffffffffffffffffffffffffffffffffffffffff166323b872dd3330876040518463ffffffff1660e01b8152600401610c09939291906111a9565b600060405180830381600087803b158015610c2357600080fd5b505af1158015610c37573d6000803e3d6000fd5b5050505060016004600086815260200190815260200160002060006101000a81548160ff021916908315150217905550816005600086815260200190815260200160002081905550806006600086815260200190815260200160002081905550826007600086815260200190815260200160002060006101000a81548173ffffffffffffffffffffffffffffffffffffffff021916908373ffffffffffffffffffffffffffffffffffffffff16021790555050505050565b806007600082815260200190815260200160002060009054906101000a900473ffffffffffffffffffffffffffffffffffffffff1673ffffffffffffffffffffffffffffffffffffffff163373ffffffffffffffffffffffffffffffffffffffff1614610d91576040517f08c379a0000000000000000000000000000000000000000000000000000000008152600401610d8890611298565b60405180910390fd5b6006600083815260200190815260200160002054341015610db157600080fd5b5050565b600160009054906101000a900473ffffffffffffffffffffffffffffffffffffffff1681565b60046020528060005260406000206000915054906101000a900460ff1681565b600073ffffffffffffffffffffffffffffffffffffffff82169050919050565b6000610e2682610dfb565b9050919050565b610e3681610e1b565b82525050565b6000602082019050610e516000830184610e2d565b92915050565b6000819050919050565b610e6a81610e57565b82525050565b6000602082019050610e856000830184610e61565b92915050565b600080fd5b610e9981610e57565b8114610ea457600080fd5b50565b600081359050610eb681610e90565b92915050565b600060208284031215610ed257610ed1610e8b565b5b6000610ee084828501610ea7565b91505092915050565b6000610ef482610dfb565b9050919050565b610f0481610ee9565b82525050565b6000602082019050610f1f6000830184610efb565b92915050565b60008115159050919050565b610f3a81610f25565b82525050565b6000602082019050610f556000830184610f31565b92915050565b610f6481610f25565b8114610f6f57600080fd5b50565b600081359050610f8181610f5b565b92915050565b60008060408385031215610f9e57610f9d610e8b565b5b6000610fac85828601610ea7565b9250506020610fbd85828601610f72565b9150509250929050565b610fd081610ee9565b8114610fdb57600080fd5b50565b600081359050610fed81610fc7565b92915050565b6000806040838503121561100a57611009610e8b565b5b600061101885828601610ea7565b925050602061102985828601610fde565b9150509250929050565b6000806000806080858703121561104d5761104c610e8b565b5b600061105b87828801610ea7565b945050602061106c87828801610fde565b935050604061107d87828801610ea7565b925050606061108e87828801610ea7565b91505092959194509250565b600082825260208201905092915050565b7f4f6e6c7920696e73706563746f722063616e2063616c6c2074686973206d657460008201527f686f640000000000000000000000000000000000000000000000000000000000602082015250565b600061110760238361109a565b9150611112826110ab565b604082019050919050565b60006020820190508181036000830152611136816110fa565b9050919050565b600081905092915050565b7f2000000000000000000000000000000000000000000000000000000000000000600082015250565b600061117e60018361113d565b915061118982611148565b600182019050919050565b600061119f82611171565b9150819050919050565b60006060820190506111be6000830186610efb565b6111cb6020830185610efb565b6111d86040830184610e61565b949350505050565b7f4f6e6c792073656c6c65722063616e2063616c6c2074686973206d6574686f64600082015250565b600061121660208361109a565b9150611221826111e0565b602082019050919050565b6000602082019050818103600083015261124581611209565b9050919050565b7f4f6e6c792062757965722063616e2063616c6c2074686973206d6574686f6400600082015250565b6000611282601f8361109a565b915061128d8261124c565b602082019050919050565b600060208201905081810360008301526112b181611275565b905091905056fea26469706673582212207294dc352710329cf4103b8b4cfef93601bc6de800d2fbe8c01002db8491718264736f6c63430008110033",
  "linkReferences": {},
  "deployedLinkReferences": {}
}